{
    "contractName": "RaisyChef",
    "abi": [
        {
            "inputs": [
                {
                    "internalType": "contract RaisyToken",
                    "name": "_Raisy",
                    "type": "address"
                },
                {
                    "internalType": "address",
                    "name": "_devaddr",
                    "type": "address"
                },
                {
                    "internalType": "address",
                    "name": "_daotreasuryaddr",
                    "type": "address"
                },
                {
                    "internalType": "uint256",
                    "name": "_rewardPerBlock",
                    "type": "uint256"
                },
                {
                    "internalType": "uint256",
                    "name": "_lockDuration",
                    "type": "uint256"
                },
                {
                    "internalType": "uint256",
                    "name": "_startBlock",
                    "type": "uint256"
                }
            ],
            "stateMutability": "nonpayable",
            "type": "constructor"
        },
        {
            "anonymous": false,
            "inputs": [
                {
                    "indexed": true,
                    "internalType": "address",
                    "name": "user",
                    "type": "address"
                },
                {
                    "indexed": true,
                    "internalType": "uint256",
                    "name": "pid",
                    "type": "uint256"
                },
                {
                    "indexed": false,
                    "internalType": "uint256",
                    "name": "amount",
                    "type": "uint256"
                }
            ],
            "name": "Deposit",
            "type": "event"
        },
        {
            "anonymous": false,
            "inputs": [
                {
                    "indexed": true,
                    "internalType": "address",
                    "name": "user",
                    "type": "address"
                },
                {
                    "indexed": true,
                    "internalType": "uint256",
                    "name": "pid",
                    "type": "uint256"
                },
                {
                    "indexed": false,
                    "internalType": "uint256",
                    "name": "amount",
                    "type": "uint256"
                }
            ],
            "name": "EmergencyWithdraw",
            "type": "event"
        },
        {
            "anonymous": false,
            "inputs": [
                {
                    "indexed": true,
                    "internalType": "address",
                    "name": "previousOwner",
                    "type": "address"
                },
                {
                    "indexed": true,
                    "internalType": "address",
                    "name": "newOwner",
                    "type": "address"
                }
            ],
            "name": "OwnershipTransferred",
            "type": "event"
        },
        {
            "anonymous": false,
            "inputs": [
                {
                    "indexed": true,
                    "internalType": "address",
                    "name": "user",
                    "type": "address"
                },
                {
                    "indexed": true,
                    "internalType": "uint256",
                    "name": "pid",
                    "type": "uint256"
                },
                {
                    "indexed": false,
                    "internalType": "uint256",
                    "name": "amount",
                    "type": "uint256"
                }
            ],
            "name": "SendGovernanceTokenReward",
            "type": "event"
        },
        {
            "anonymous": false,
            "inputs": [
                {
                    "indexed": true,
                    "internalType": "address",
                    "name": "user",
                    "type": "address"
                },
                {
                    "indexed": true,
                    "internalType": "uint256",
                    "name": "pid",
                    "type": "uint256"
                },
                {
                    "indexed": false,
                    "internalType": "uint256",
                    "name": "amount",
                    "type": "uint256"
                }
            ],
            "name": "Withdraw",
            "type": "event"
        },
        {
            "inputs": [],
            "name": "LOCK_DURATION",
            "outputs": [
                {
                    "internalType": "uint256",
                    "name": "",
                    "type": "uint256"
                }
            ],
            "stateMutability": "view",
            "type": "function"
        },
        {
            "inputs": [],
            "name": "PERCENT_FOR_DAO",
            "outputs": [
                {
                    "internalType": "uint256",
                    "name": "",
                    "type": "uint256"
                }
            ],
            "stateMutability": "view",
            "type": "function"
        },
        {
            "inputs": [],
            "name": "PERCENT_FOR_DEV",
            "outputs": [
                {
                    "internalType": "uint256",
                    "name": "",
                    "type": "uint256"
                }
            ],
            "stateMutability": "view",
            "type": "function"
        },
        {
            "inputs": [],
            "name": "REWARD_PER_BLOCK",
            "outputs": [
                {
                    "internalType": "uint256",
                    "name": "",
                    "type": "uint256"
                }
            ],
            "stateMutability": "view",
            "type": "function"
        },
        {
            "inputs": [],
            "name": "Raisy",
            "outputs": [
                {
                    "internalType": "contract RaisyToken",
                    "name": "",
                    "type": "address"
                }
            ],
            "stateMutability": "view",
            "type": "function"
        },
        {
            "inputs": [],
            "name": "START_BLOCK",
            "outputs": [
                {
                    "internalType": "uint256",
                    "name": "",
                    "type": "uint256"
                }
            ],
            "stateMutability": "view",
            "type": "function"
        },
        {
            "inputs": [
                {
                    "internalType": "uint256",
                    "name": "_campaignId",
                    "type": "uint256"
                },
                {
                    "internalType": "uint256",
                    "name": "_endBlock",
                    "type": "uint256"
                }
            ],
            "name": "add",
            "outputs": [],
            "stateMutability": "nonpayable",
            "type": "function"
        },
        {
            "inputs": [
                {
                    "internalType": "uint256",
                    "name": "_pid",
                    "type": "uint256"
                }
            ],
            "name": "claimReward",
            "outputs": [],
            "stateMutability": "nonpayable",
            "type": "function"
        },
        {
            "inputs": [
                {
                    "internalType": "uint256[]",
                    "name": "_pids",
                    "type": "uint256[]"
                }
            ],
            "name": "claimRewards",
            "outputs": [],
            "stateMutability": "nonpayable",
            "type": "function"
        },
        {
            "inputs": [
                {
                    "internalType": "address",
                    "name": "_newDaoTreasury",
                    "type": "address"
                }
            ],
            "name": "daoTreasuryUpdate",
            "outputs": [],
            "stateMutability": "nonpayable",
            "type": "function"
        },
        {
            "inputs": [],
            "name": "daotreasuryaddr",
            "outputs": [
                {
                    "internalType": "address",
                    "name": "",
                    "type": "address"
                }
            ],
            "stateMutability": "view",
            "type": "function"
        },
        {
            "inputs": [
                {
                    "internalType": "uint256",
                    "name": "_pid",
                    "type": "uint256"
                },
                {
                    "internalType": "uint256",
                    "name": "_amount",
                    "type": "uint256"
                }
            ],
            "name": "deposit",
            "outputs": [],
            "stateMutability": "nonpayable",
            "type": "function"
        },
        {
            "inputs": [
                {
                    "internalType": "address",
                    "name": "_devaddr",
                    "type": "address"
                }
            ],
            "name": "dev",
            "outputs": [],
            "stateMutability": "nonpayable",
            "type": "function"
        },
        {
            "inputs": [],
            "name": "devaddr",
            "outputs": [
                {
                    "internalType": "address",
                    "name": "",
                    "type": "address"
                }
            ],
            "stateMutability": "view",
            "type": "function"
        },
        {
            "inputs": [
                {
                    "internalType": "address",
                    "name": "_user",
                    "type": "address"
                }
            ],
            "name": "getGlobalAmount",
            "outputs": [
                {
                    "internalType": "uint256",
                    "name": "",
                    "type": "uint256"
                }
            ],
            "stateMutability": "view",
            "type": "function"
        },
        {
            "inputs": [
                {
                    "internalType": "uint256",
                    "name": "_from",
                    "type": "uint256"
                },
                {
                    "internalType": "uint256",
                    "name": "_to",
                    "type": "uint256"
                },
                {
                    "internalType": "uint256",
                    "name": "_daoBonusMultiplier",
                    "type": "uint256"
                }
            ],
            "name": "getPoolReward",
            "outputs": [
                {
                    "internalType": "uint256",
                    "name": "forFarmer",
                    "type": "uint256"
                },
                {
                    "internalType": "uint256",
                    "name": "forDao",
                    "type": "uint256"
                }
            ],
            "stateMutability": "view",
            "type": "function"
        },
        {
            "inputs": [],
            "name": "massUpdatePools",
            "outputs": [],
            "stateMutability": "nonpayable",
            "type": "function"
        },
        {
            "inputs": [],
            "name": "owner",
            "outputs": [
                {
                    "internalType": "address",
                    "name": "",
                    "type": "address"
                }
            ],
            "stateMutability": "view",
            "type": "function"
        },
        {
            "inputs": [
                {
                    "internalType": "uint256",
                    "name": "_pid",
                    "type": "uint256"
                },
                {
                    "internalType": "address",
                    "name": "_user",
                    "type": "address"
                }
            ],
            "name": "pendingReward",
            "outputs": [
                {
                    "internalType": "uint256",
                    "name": "",
                    "type": "uint256"
                }
            ],
            "stateMutability": "view",
            "type": "function"
        },
        {
            "inputs": [
                {
                    "internalType": "uint256",
                    "name": "",
                    "type": "uint256"
                }
            ],
            "name": "poolExistence",
            "outputs": [
                {
                    "internalType": "bool",
                    "name": "",
                    "type": "bool"
                }
            ],
            "stateMutability": "view",
            "type": "function"
        },
        {
            "inputs": [
                {
                    "internalType": "uint256",
                    "name": "",
                    "type": "uint256"
                }
            ],
            "name": "poolId1",
            "outputs": [
                {
                    "internalType": "uint256",
                    "name": "",
                    "type": "uint256"
                }
            ],
            "stateMutability": "view",
            "type": "function"
        },
        {
            "inputs": [
                {
                    "internalType": "uint256",
                    "name": "",
                    "type": "uint256"
                }
            ],
            "name": "poolInfo",
            "outputs": [
                {
                    "internalType": "uint256",
                    "name": "campaignId",
                    "type": "uint256"
                },
                {
                    "internalType": "uint256",
                    "name": "endBlock",
                    "type": "uint256"
                },
                {
                    "internalType": "uint256",
                    "name": "lastRewardBlock",
                    "type": "uint256"
                },
                {
                    "internalType": "uint256",
                    "name": "accRaisyPerShare",
                    "type": "uint256"
                },
                {
                    "internalType": "uint256",
                    "name": "daoBonusMultiplier",
                    "type": "uint256"
                }
            ],
            "stateMutability": "view",
            "type": "function"
        },
        {
            "inputs": [],
            "name": "poolLength",
            "outputs": [
                {
                    "internalType": "uint256",
                    "name": "",
                    "type": "uint256"
                }
            ],
            "stateMutability": "view",
            "type": "function"
        },
        {
            "inputs": [],
            "name": "renounceOwnership",
            "outputs": [],
            "stateMutability": "nonpayable",
            "type": "function"
        },
        {
            "inputs": [
                {
                    "internalType": "uint256",
                    "name": "_newReward",
                    "type": "uint256"
                }
            ],
            "name": "rewardUpdate",
            "outputs": [],
            "stateMutability": "nonpayable",
            "type": "function"
        },
        {
            "inputs": [
                {
                    "internalType": "uint256",
                    "name": "_pid",
                    "type": "uint256"
                },
                {
                    "internalType": "uint256",
                    "name": "_endBlock",
                    "type": "uint256"
                },
                {
                    "internalType": "uint256",
                    "name": "_daoBonusMultiplier",
                    "type": "uint256"
                }
            ],
            "name": "set",
            "outputs": [],
            "stateMutability": "nonpayable",
            "type": "function"
        },
        {
            "inputs": [
                {
                    "internalType": "uint256",
                    "name": "_newstarblock",
                    "type": "uint256"
                }
            ],
            "name": "starblockUpdate",
            "outputs": [],
            "stateMutability": "nonpayable",
            "type": "function"
        },
        {
            "inputs": [
                {
                    "internalType": "address",
                    "name": "newOwner",
                    "type": "address"
                }
            ],
            "name": "transferOwnership",
            "outputs": [],
            "stateMutability": "nonpayable",
            "type": "function"
        },
        {
            "inputs": [
                {
                    "internalType": "uint256",
                    "name": "_pid",
                    "type": "uint256"
                }
            ],
            "name": "updatePool",
            "outputs": [],
            "stateMutability": "nonpayable",
            "type": "function"
        },
        {
            "inputs": [
                {
                    "internalType": "address",
                    "name": "",
                    "type": "address"
                }
            ],
            "name": "userGlobalInfo",
            "outputs": [
                {
                    "internalType": "uint256",
                    "name": "globalAmount",
                    "type": "uint256"
                }
            ],
            "stateMutability": "view",
            "type": "function"
        },
        {
            "inputs": [
                {
                    "internalType": "uint256",
                    "name": "",
                    "type": "uint256"
                },
                {
                    "internalType": "address",
                    "name": "",
                    "type": "address"
                }
            ],
            "name": "userInfo",
            "outputs": [
                {
                    "internalType": "uint256",
                    "name": "amount",
                    "type": "uint256"
                },
                {
                    "internalType": "uint256",
                    "name": "rewardDebt",
                    "type": "uint256"
                }
            ],
            "stateMutability": "view",
            "type": "function"
        }
    ],
    "bytecode": "60806040523480156200001157600080fd5b5060405162001b1e38038062001b1e833981016040819052620000349162000101565b6200003f3362000098565b60018055600280546001600160a01b039788166001600160a01b03199182161790915560038054968816968216969096179095556004805494909616939094169290921790935560059290925560065560095562000171565b600080546001600160a01b038381166001600160a01b0319831681178455604051919092169283917f8be0079c531659141344cd1fd0a4f28419497f9722a3daafe3b4186f6b6457e09190a35050565b6001600160a01b0381168114620000fe57600080fd5b50565b60008060008060008060c087890312156200011b57600080fd5b86516200012881620000e8565b60208801519096506200013b81620000e8565b60408801519095506200014e81620000e8565b80945050606087015192506080870151915060a087015190509295509295509295565b61199d80620001816000396000f3fe608060405234801561001057600080fd5b50600436106101e55760003560e01c8063922d83951161010f578063c8ed7680116100a2578063ed9bdeda11610071578063ed9bdeda14610486578063f25fdcea1461048f578063f2fde38b146104a2578063faaed32e146104b557600080fd5b8063c8ed76801461042d578063d49e77cd14610440578063d9608d8a14610453578063e2bbb1581461047357600080fd5b8063975532dc116100de578063975532dc146103cb57806398969e82146103d4578063ae169a50146103e7578063b2507a27146103fa57600080fd5b8063922d839514610321578063929c69711461032a578063934d4ea81461036457806393f1a40b1461038457600080fd5b806351eb05a611610187578063715018a611610156578063715018a6146102e2578063771602f7146102ea5780638d88a90e146102fd5780638da5cb5b1461031057600080fd5b806351eb05a6146102895780635eac62391461029c578063630b5ba1146102af5780636c277931146102b757600080fd5b806339b3e826116101c357806339b3e826146102515780633d479cd51461025a57806343b0e8df1461026d578063485d38341461028057600080fd5b8063081e3eda146101ea5780631526fe271461020157806324b95c3e1461023c575b600080fd5b600a545b6040519081526020015b60405180910390f35b61021461020f366004611627565b6104c8565b604080519586526020860194909452928401919091526060830152608082015260a0016101f8565b61024f61024a366004611627565b610509565b005b6101ee60065481565b61024f610268366004611627565b610541565b61024f61027b366004611640565b610570565b6101ee60095481565b61024f610297366004611627565b6105f1565b61024f6102aa366004611682565b6107e6565b61024f61082a565b6002546102ca906001600160a01b031681565b6040516001600160a01b0390911681526020016101f8565b61024f610851565b61024f6102f8366004611740565b610887565b61024f61030b36600461177e565b610acd565b6000546001600160a01b03166102ca565b6101ee60085481565b6101ee61033836600461177e565b6001600160a01b03166000908152600d6020908152604091829020825191820190925290549081905290565b6101ee610372366004611627565b600b6020526000908152604090205481565b6103b6610392366004611799565b600c6020908152600092835260408084209091529082529020805460019091015482565b604080519283526020830191909152016101f8565b6101ee60055481565b6101ee6103e2366004611799565b610b19565b61024f6103f5366004611627565b610c6a565b61041d610408366004611627565b600e6020526000908152604090205460ff1681565b60405190151581526020016101f8565b6103b661043b366004611640565b610c7f565b6003546102ca906001600160a01b031681565b6101ee61046136600461177e565b600d6020526000908152604090205481565b61024f610481366004611740565b610dfa565b6101ee60075481565b6004546102ca906001600160a01b031681565b61024f6104b036600461177e565b610f8f565b61024f6104c336600461177e565b611027565b600a81815481106104d857600080fd5b6000918252602090912060059091020180546001820154600283015460038401546004909401549294509092909185565b6000546001600160a01b0316331461053c5760405162461bcd60e51b8152600401610533906117c5565b60405180910390fd5b600655565b6000546001600160a01b0316331461056b5760405162461bcd60e51b8152600401610533906117c5565b600555565b6000546001600160a01b0316331461059a5760405162461bcd60e51b8152600401610533906117c5565b81600a84815481106105ae576105ae6117fa565b90600052602060002090600502016001018190555080600a84815481106105d7576105d76117fa565b906000526020600020906005020160040181905550505050565b6000600a8281548110610606576106066117fa565b9060005260206000209060050201905080600201544311610625575050565b6002546040516370a0823160e01b81523060048201526000916001600160a01b0316906370a082319060240160206040518083038186803b15801561066957600080fd5b505afa15801561067d573d6000803e3d6000fd5b505050506040513d601f19601f820116820180604052508101906106a19190611810565b9050806106b357504360029091015550565b6000806106c98460020154438660040154610c7f565b6002546040516340c10f1960e01b8152306004820152602481018490529294509092506001600160a01b0316906340c10f1990604401600060405180830381600087803b15801561071957600080fd5b505af115801561072d573d6000803e3d6000fd5b505050506107616107568461075064e8d4a510008661107390919063ffffffff16565b90611086565b600386015490611092565b600385015543600285015580156107df57600254600480546040516340c10f1960e01b81526001600160a01b039182169281019290925260248201849052909116906340c10f1990604401600060405180830381600087803b1580156107c657600080fd5b505af11580156107da573d6000803e3d6000fd5b505050505b5050505050565b60005b815181101561082657610814828281518110610807576108076117fa565b6020026020010151610c6a565b8061081e8161183f565b9150506107e9565b5050565b600a5460005b8181101561082657610841816105f1565b61084a8161183f565b9050610830565b6000546001600160a01b0316331461087b5760405162461bcd60e51b8152600401610533906117c5565b610885600061109e565b565b6000546001600160a01b031633146108b15760405162461bcd60e51b8152600401610533906117c5565b6000828152600e6020526040902054829060ff161561091e5760405162461bcd60e51b8152602060048201526024808201527f5261697379436865663a3a6e6f6e4475706c6963617465643a206475706c6963604482015263185d195960e21b6064820152608401610533565b6000838152600b6020526040902054156109845760405162461bcd60e51b815260206004820152602160248201527f5261697379436865663a3a6164643a20696420616c72656164792065786973746044820152607360f81b6064820152608401610533565b6000600654431161099757600654610999565b435b600a549091506109aa90600161185a565b6000858152600b6020908152604080832093909355600e81528282208054600160ff199091168117909155835160a0810185529788529087019586529186019283526060860181815260808701838152600a8054948501815590925295517fc65a7bb8d6351c1cf70c95a316cc6a92839c986682d98bc35f958f4883f9d2a860059093029283015593517fc65a7bb8d6351c1cf70c95a316cc6a92839c986682d98bc35f958f4883f9d2a982015590517fc65a7bb8d6351c1cf70c95a316cc6a92839c986682d98bc35f958f4883f9d2aa82015592517fc65a7bb8d6351c1cf70c95a316cc6a92839c986682d98bc35f958f4883f9d2ab84015550517fc65a7bb8d6351c1cf70c95a316cc6a92839c986682d98bc35f958f4883f9d2ac90910155565b6000546001600160a01b03163314610af75760405162461bcd60e51b8152600401610533906117c5565b600380546001600160a01b0319166001600160a01b0392909216919091179055565b600080600a8481548110610b2f57610b2f6117fa565b60009182526020808320878452600c825260408085206001600160a01b0389811687529352808520600594909402909101600381015460025492516370a0823160e01b815230600482015291965093949291909116906370a082319060240160206040518083038186803b158015610ba657600080fd5b505afa158015610bba573d6000803e3d6000fd5b505050506040513d601f19601f82011682018060405250810190610bde9190611810565b9050836002015443118015610bf35750600081115b15610c31576000610c0d8560020154438760040154610c7f565b509050610c2d610c26836107508464e8d4a51000611073565b8490611092565b9250505b610c5f8360010154610c5964e8d4a5100061075086886000015461107390919063ffffffff16565b906110ee565b979650505050505050565b610c73816105f1565b610c7c816110fa565b50565b6000806000610ca784610ca1600554610ca18a8a6110ee90919063ffffffff16565b90611073565b90506000610dba600260009054906101000a90046001600160a01b03166001600160a01b03166318160ddd6040518163ffffffff1660e01b815260040160206040518083038186803b158015610cfc57600080fd5b505afa158015610d10573d6000803e3d6000fd5b505050506040513d601f19601f82011682018060405250810190610d349190611810565b600260009054906101000a90046001600160a01b03166001600160a01b03166314ae92bc6040518163ffffffff1660e01b815260040160206040518083038186803b158015610d8257600080fd5b505afa158015610d96573d6000803e3d6000fd5b505050506040513d601f19601f82011682018060405250810190610c599190611810565b905081811015610dd05780935060009250610df0565b610dea60646107506008548561107390919063ffffffff16565b92508193505b5050935093915050565b60026001541415610e4d5760405162461bcd60e51b815260206004820152601f60248201527f5265656e7472616e637947756172643a207265656e7472616e742063616c6c006044820152606401610533565b600260015580610eb95760405162461bcd60e51b815260206004820152603160248201527f5261697379436865663a3a6465706f7369743a20616d6f756e74206d75737420604482015270062652067726561746572207468616e203607c1b6064820152608401610533565b6000600a8381548110610ece57610ece6117fa565b60009182526020808320868452600c82526040808520338652909252922060059091029091019150610eff846105f1565b610f08846110fa565b600254610f20906001600160a01b031633308661138d565b8054610f2c9084611092565b8082556003830154610f499164e8d4a51000916107509190611073565b6001820155604051838152849033907f90890809c654f11d6e72a28fa60149770a0d11ec6c92319d6ceb2bb0a4ea1a159060200160405180910390a35050600180555050565b6000546001600160a01b03163314610fb95760405162461bcd60e51b8152600401610533906117c5565b6001600160a01b03811661101e5760405162461bcd60e51b815260206004820152602660248201527f4f776e61626c653a206e6577206f776e657220697320746865207a65726f206160448201526564647265737360d01b6064820152608401610533565b610c7c8161109e565b6000546001600160a01b031633146110515760405162461bcd60e51b8152600401610533906117c5565b600480546001600160a01b0319166001600160a01b0392909216919091179055565b600061107f8284611872565b9392505050565b600061107f8284611891565b600061107f828461185a565b600080546001600160a01b038381166001600160a01b0319831681178455604051919092169283917f8be0079c531659141344cd1fd0a4f28419497f9722a3daafe3b4186f6b6457e09190a35050565b600061107f82846118b3565b6000600a828154811061110f5761110f6117fa565b60009182526020808320858452600c825260408085203386529092529220600160059092029092019081015490925043101561118d5760405162461bcd60e51b815260206004820152601960248201527f43616d706169676e206973206e6f74206f766572207965742e000000000000006044820152606401610533565b8054156113885760006111c28260010154610c5964e8d4a510006107508760030154876000015461107390919063ffffffff16565b6002546040516370a0823160e01b81523060048201529192506000916001600160a01b03909116906370a082319060240160206040518083038186803b15801561120b57600080fd5b505afa15801561121f573d6000803e3d6000fd5b505050506040513d601f19601f820116820180604052508101906112439190611810565b905080821115611251578091505b8115611365576000600954856001015461126b919061185a565b43106112785750816112a7565b60006112976009546107508860010154436110ee90919063ffffffff16565b90506112a38482611073565b9150505b60025460405163a9059cbb60e01b8152336004820152602481018390526001600160a01b039091169063a9059cbb90604401602060405180830381600087803b1580156112f357600080fd5b505af1158015611307573d6000803e3d6000fd5b505050506040513d601f19601f8201168201806040525081019061132b91906118ca565b50604051818152869033907f434e0919245de88bbc99a43beb6cf56450411c735e89278c01a461be2bb962589060200160405180910390a3505b600384015483546113809164e8d4a510009161075091611073565b600184015550505b505050565b604080516001600160a01b0385811660248301528416604482015260648082018490528251808303909101815260849091019091526020810180516001600160e01b03166323b872dd60e01b1790526113e79085906113ed565b50505050565b6000611442826040518060400160405280602081526020017f5361666545524332303a206c6f772d6c6576656c2063616c6c206661696c6564815250856001600160a01b03166114bf9092919063ffffffff16565b805190915015611388578080602001905181019061146091906118ca565b6113885760405162461bcd60e51b815260206004820152602a60248201527f5361666545524332303a204552433230206f7065726174696f6e20646964206e6044820152691bdd081cdd58d8d9595960b21b6064820152608401610533565b60606114ce84846000856114d6565b949350505050565b6060824710156115375760405162461bcd60e51b815260206004820152602660248201527f416464726573733a20696e73756666696369656e742062616c616e636520666f6044820152651c8818d85b1b60d21b6064820152608401610533565b843b6115855760405162461bcd60e51b815260206004820152601d60248201527f416464726573733a2063616c6c20746f206e6f6e2d636f6e74726163740000006044820152606401610533565b600080866001600160a01b031685876040516115a19190611918565b60006040518083038185875af1925050503d80600081146115de576040519150601f19603f3d011682016040523d82523d6000602084013e6115e3565b606091505b5091509150610c5f828286606083156115fd57508161107f565b82511561160d5782518084602001fd5b8160405162461bcd60e51b81526004016105339190611934565b60006020828403121561163957600080fd5b5035919050565b60008060006060848603121561165557600080fd5b505081359360208301359350604090920135919050565b634e487b7160e01b600052604160045260246000fd5b6000602080838503121561169557600080fd5b823567ffffffffffffffff808211156116ad57600080fd5b818501915085601f8301126116c157600080fd5b8135818111156116d3576116d361166c565b8060051b604051601f19603f830116810181811085821117156116f8576116f861166c565b60405291825284820192508381018501918883111561171657600080fd5b938501935b828510156117345784358452938501939285019261171b565b98975050505050505050565b6000806040838503121561175357600080fd5b50508035926020909101359150565b80356001600160a01b038116811461177957600080fd5b919050565b60006020828403121561179057600080fd5b61107f82611762565b600080604083850312156117ac57600080fd5b823591506117bc60208401611762565b90509250929050565b6020808252818101527f4f776e61626c653a2063616c6c6572206973206e6f7420746865206f776e6572604082015260600190565b634e487b7160e01b600052603260045260246000fd5b60006020828403121561182257600080fd5b5051919050565b634e487b7160e01b600052601160045260246000fd5b600060001982141561185357611853611829565b5060010190565b6000821982111561186d5761186d611829565b500190565b600081600019048311821515161561188c5761188c611829565b500290565b6000826118ae57634e487b7160e01b600052601260045260246000fd5b500490565b6000828210156118c5576118c5611829565b500390565b6000602082840312156118dc57600080fd5b8151801515811461107f57600080fd5b60005b838110156119075781810151838201526020016118ef565b838111156113e75750506000910152565b6000825161192a8184602087016118ec565b9190910192915050565b60208152600082518060208401526119538160408501602087016118ec565b601f01601f1916919091016040019291505056fea264697066735822122045be8add7a5c14fa080543b35cbc47cd5345045f2c51fead091d538dc6886bfb64736f6c63430008090033",
    "sourcePath": "c:/Users/snbcr_ywocjij/OneDrive/Bureau/pancake-uikit/raisy-contracts/contracts/RaisyChef.sol",
    "compiler": {
        "name": "solc",
        "version": "0.8.9+commit.e5eed63a"
    },
    "functionHashes": {
        "LOCK_DURATION()": "485d3834",
        "PERCENT_FOR_DAO()": "922d8395",
        "PERCENT_FOR_DEV()": "ed9bdeda",
        "REWARD_PER_BLOCK()": "975532dc",
        "Raisy()": "6c277931",
        "START_BLOCK()": "39b3e826",
        "add(uint256,uint256)": "771602f7",
        "claimReward(uint256)": "ae169a50",
        "claimRewards(uint256[])": "5eac6239",
        "daoTreasuryUpdate(address)": "faaed32e",
        "daotreasuryaddr()": "f25fdcea",
        "deposit(uint256,uint256)": "e2bbb158",
        "dev(address)": "8d88a90e",
        "devaddr()": "d49e77cd",
        "getGlobalAmount(address)": "929c6971",
        "getPoolReward(uint256,uint256,uint256)": "c8ed7680",
        "massUpdatePools()": "630b5ba1",
        "owner()": "8da5cb5b",
        "pendingReward(uint256,address)": "98969e82",
        "poolExistence(uint256)": "b2507a27",
        "poolId1(uint256)": "934d4ea8",
        "poolInfo(uint256)": "1526fe27",
        "poolLength()": "081e3eda",
        "renounceOwnership()": "715018a6",
        "rewardUpdate(uint256)": "3d479cd5",
        "set(uint256,uint256,uint256)": "43b0e8df",
        "starblockUpdate(uint256)": "24b95c3e",
        "transferOwnership(address)": "f2fde38b",
        "updatePool(uint256)": "51eb05a6",
        "userGlobalInfo(address)": "d9608d8a",
        "userInfo(uint256,address)": "93f1a40b"
    },
    "gasEstimates": {
        "creation": {
            "codeDepositCost": "1311400",
            "executionCost": "infinite",
            "totalCost": "infinite"
        },
        "external": {
            "LOCK_DURATION()": "2396",
            "PERCENT_FOR_DAO()": "2330",
            "PERCENT_FOR_DEV()": "2328",
            "REWARD_PER_BLOCK()": "2329",
            "Raisy()": "2449",
            "START_BLOCK()": "2330",
            "add(uint256,uint256)": "177573",
            "claimReward(uint256)": "infinite",
            "claimRewards(uint256[])": "infinite",
            "daoTreasuryUpdate(address)": "26821",
            "daotreasuryaddr()": "2403",
            "deposit(uint256,uint256)": "infinite",
            "dev(address)": "26800",
            "devaddr()": "2404",
            "getGlobalAmount(address)": "2648",
            "getPoolReward(uint256,uint256,uint256)": "infinite",
            "massUpdatePools()": "infinite",
            "owner()": "2442",
            "pendingReward(uint256,address)": "infinite",
            "poolExistence(uint256)": "2561",
            "poolId1(uint256)": "2517",
            "poolInfo(uint256)": "13196",
            "poolLength()": "2317",
            "renounceOwnership()": "28159",
            "rewardUpdate(uint256)": "24532",
            "set(uint256,uint256,uint256)": "51125",
            "starblockUpdate(uint256)": "24555",
            "transferOwnership(address)": "28397",
            "updatePool(uint256)": "infinite",
            "userGlobalInfo(address)": "2597",
            "userInfo(uint256,address)": "4868"
        },
        "internal": {
            "_harvest(uint256)": "infinite",
            "safeRaisyTransfer(address,uint256)": "infinite"
        }
    }
}